:020000020000FC
:100000000C9404000C943900D09AD19AD29AA09AF8
:10001000A19AA29A02E005BF8A9800E40BBF7894E7
:10002000D89AAA9A0E943C00D898AA98D99AA99AD4
:100030000E943C00DE990C942700D998A998DA9A7E
:10004000A89A0E943C00DA98A8980C941000D998BD
:10005000A998AA9AD89A0E943C00D898AA98DE98A3
:10006000DA9AA89A0E943C00DA98A89878940C949E
:100070001000D999DE9A1895CAE00E944200CA95EC
:10008000E1F7089520E022BF21E023BF9AE064E673
:1000900028B720FFFDCF6A9521E028BFC9F79A95C0
:0800A000B1F720E023BF089531
:00000001FF
